S014000070726F796563746F6F6F5F322E737265632C
S11300000C9434000C9451000C9451000C94510045
S11300100C9451000C9400030C9451000C94510066
S11300200C9451000C9451000C9451000C94510008
S11300300C9451000C9451000C9451000C945100F8
S11300400C9451000C9451000C94D3020C94510064
S11300500C9451000C9451000C9451000C945100D8
S11300600C9451000C94510011241FBECFEFD8E022
S1130070DEBFCDBF12E0A0E0B1E0E6E5FAE002C0E9
S113008005900D92A039B107D9F722E0A0E9B2E0BA
S113009001C01D92A639B207E1F70E9439010C9400
S11300A029050C940000F999FECF72BD61BD80BD95
S11300B08FB384608FBB8FB382608FBB0895F9992F
S11300C0FECF92BD81BD8FB381608FBB80B5089593
S11300D0F89417B884B1806284B987B1826087B913
S11300E085B18F7D85B988B18D7F88B98AB18468DF
S11300F08AB98BB184688BB9EDE6F0E080818068C1
S11301008083E8E6F0E08081846080830E941A03A3
S11301107894089580E480937C0087E880937A0043
S11301200895ECE7F0E09081907F8F70892B8083B5
S1130130EAE7F0E080818064808380917A0086FD24
S1130140FCCF80917800909179000895E0E8F0E088
S11301508081826A8083E1E8F0E080818A61808323
S113016088EE9DEF909387008093860084B186602B
S113017084B90895E0EBF0E08081836A8083E1EB49
S1130180F0E08081876080838AB188608AB984B115
S1130190886084B9089584B5836A84BD85B5856013
S11301A085BD8AB180648AB98AB180628AB90895AA
S11301B09093890080938800089590938B00809396
S11301C08A0008958093B30008958093B40008953D
S11301D087BD089588BD089599B1892F847092FDD3
S11301E00DC02FEF39EF90E0215030409040E1F7FF
S11301F000C000004A9903C081E0089580E008959A
S113020080919402813059F018F0823079F0089589
S113021085B1806285B988B18D7F88B9089585B12B
S11302208F7D85B988B1826088B9089585B18F7D45
S113023085B988B18D7F88B908950E94EC00882320
S1130240B9F04A9BFECF2FEF89EF90E02150804018
S11302509040E1F700C000008091940290E0019684
S113026063E070E00E940105809394020E94000103
S113027008950E9468000E948A000E94A6000E94BD
S1130280BA000E94CB000E9400010E941D018091CF
S11302909402813009F4F1C020F0823009F424C1C1
S11302A0F4CF86E00E949100BC0180E090E00E94BF
S11302B0060428E431EE4AEF5FEB0E94940420E048
S11302C030E443E055E40E946B030E94D703CB0162
S11302D00E94D80086E00E949100BC0180E090E07A
S11302E00E94060428E431EE4AEF5FE30E9494047E
S11302F020E030EE45E954E40E946B030E94D703EA
S1130300CB010E94DD0086E00E949100BC0180E0E8
S113031090E00E94060427EF35E740E65CE30E9484
S1130320940420E030E040E151E40E946B030E9419
S1130330D703CB010E94E20087E00E949100BC0138
S113034080E090E00E94060424E132E240EE5BE3A8
S11303500E94940420E030E040E151E40E946B03E9
S11303600E94D703CB010E94E50080E00E94910027
S1130370BC0180E090E00E94060424E237E94FE7E4
S11303805BE30E94940420E030E040E151E40E94E9
S11303906B030E94D703CB010E94E80080E00E9417
S11303A09100BC0180E090E00E94060424E237E959
S11303B04FE75BEB0E94940420E030E040E551E419
S11303C00E946B030E94D703CB010E94EA00809134
S11303D09302813009F059CF80919102863008F060
S11303E054CF6091920281E0860F809392028091B3
S11303F088009091890070E00E94530060919202FD
S113040081E0860F8093920280918A0090918B0004
S113041070E00E9453006091920281E0860F809305
S113042092028091B30070E00E94530060919202A6
S113043081E0860F809392028091B40070E00E9464
S113044053006091920281E0860F8093920287B5F7
S113045070E00E9453006091920281E0860F8093C5
S1130460920288B570E00E945300809191028F5FE0
S1130470809391021092930208CF809193029FEF90
S1130480980F943008F001CF90E00197982F990FBE
S1130490890FC82FCC0FD0E0CE010E945F0090E0FE
S11304A09093890080938800CE0101960E945F009A
S11304B090E090938B0080938A00CE0102960E9474
S11304C05F008093B300CE0103960E945F00809387
S11304D0B400CE0104960E945F0087BDCE0105964C
S11304E00E945F0088BDD1CE80E091E00E94360377
S11304F00E94490352C0809190028823E9F18091BF
S113050095028333D9F028F4813341F0823371F0BA
S11305102BC08433D1F08533F9F026C087E1809372
S1130520B3008FE291E00E94360322C089E08093F9
S1130530B30088E491E00E9436031AC086E087BDC8
S113054083E691E00E94360313C08DE088BD82E803
S113055091E00E9436030CC087E08093B4008FE9D9
S113056091E00E94360304C080EB91E00E943603C0
S1130570109290020E94490395B180E2892785B9BF
S11305802FEF83EC99E0215080409040E1F700C0C8
S113059000000E941D010E9400018091940282309B
S11305A009F4A9CF72CE1F920F920FB60F921124A5
S11305B02F933F934F935F936F937F938F939F9367
S11305C0AF93BF93EF93FF938091C60080939502FE
S11305D081E080939002809195020E942F03FF9105
S11305E0EF91BF91AF919F918F917F916F915F91A7
S11305F04F913F912F910F900FBE0F901F90189520
S11306001F920F920FB60F9211248F9385B18062BF
S113061085B94F9909C0809193028F5F80939302AB
S1130620853011F4109293028F910F900FBE0F90AA
S11306301F9018958AB182608AB98AB18E7F8AB96F
S11306401092C00088E98093C10086E08093C200C4
S113065087E690E09093C5008093C400089590913C
S1130660C00095FFFCCF8093C60008950F931F939D
S1130670CF938C01C0E003C00E942F03CF5FF80129
S1130680EC0FF11D80818111F7CFCF911F910F9154
S1130690089589ED91E00E94360389EF91E00E946C
S11306A0360382E192E00E9436038DE292E00E94DA
S11306B0360381E492E00E94360383E592E00E94CF
S11306C0360384E692E00E9436038EE792E00E94AD
S11306D0360308955058BB27AA270E9482030C941E
S11306E05A040E944C0438F00E94530420F039F458
S11306F09F3F19F426F40C9449040EF4E095E7FBAB
S11307000C944304E92F0E946B0458F3BA17620750
S113071073078407950720F079F4A6F50C948D04EB
S11307200EF4E0950B2EBA2FA02D0B01B901900108
S11307300C01CA01A0011124FF27591B99F0593F4C
S113074050F4503E68F11A16F040A22F232F342F94
S11307504427585FF3CF469537952795A795F040E2
S11307605395C9F77EF41F16BA0B620B730B840BF7
S1130770BAF09150A1F0FF0FBB1F661F771F881FAF
S1130780C2F70EC0BA0F621F731F841F48F4879507
S113079077956795B795F7959E3F08F0B0CF9395F9
S11307A0880F08F09927EE0F9795879508950E9472
S11307B0730488F09F5798F0B92F9927B751B0F078
S11307C0E1F0660F771F881F991F1AF0BA95C9F7D1
S11307D014C0B13091F00E948D04B1E008950C94DE
S11307E08D04672F782F8827B85F39F0B93FCCF391
S11307F0869577956795B395D9F73EF4909580954E
S1130800709561957F4F8F4F9F4F0895E89409C06D
S113081097FB3EF490958095709561957F4F8F4F2F
S11308209F4F9923A9F0F92F96E9BB279395F69545
S1130830879577956795B795F111F8CFFAF4BB0FC3
S113084011F460FF1BC06F5F7F4F8F4F9F4F16C027
S1130850882311F096E911C0772321F09EE8872FB1
S1130860762F05C0662371F096E8862F70E060E06D
S11308702AF09A95660F771F881FDAF7880F9695E6
S1130880879597F9089597F99F6780E870E060E08D
S113089008959FEF80EC089500240A941616170615
S11308A018060906089500240A941216130614065D
S11308B005060895092E0394000C11F4882352F0C0
S11308C0BB0F40F4BF2B11F460FF04C06F5F7F4F78
S11308D08F4F9F4F089557FD9058440F551F59F05F
S11308E05F3F71F04795880F97FB991F61F09F3F19
S11308F079F087950895121613061406551FF2CF42
S11309004695F1DF08C0161617061806991FF1CF91
S113091086957105610508940895E894BB276627B8
S11309207727CB0197F908950E94A7040C945A04E1
S11309300E944C0438F00E94530420F0952311F0D7
S11309400C9443040C94490411240C948E040E94C6
S11309506B0470F3959FC1F3950F50E0551F629F90
S1130960F001729FBB27F00DB11D639FAA27F00D04
S1130970B11DAA1F649F6627B00DA11D661F829F2B
S11309802227B00DA11D621F739FB00DA11D621F10
S1130990839FA00D611D221F749F3327A00D611D2D
S11309A0231F849F600D211D822F762F6A2F11240F
S11309B09F5750409AF0F1F088234AF0EE0FFF1F42
S11309C0BB1F661F771F881F91505040A9F79E3F99
S11309D0510580F00C9443040C948E045F3FE4F3BF
S11309E0983ED4F3869577956795B795F795E795EF
S11309F09F5FC1F7FE2B880F911D9695879597F9F8
S1130A00089597FB072E16F4009407D077FD09D0BC
S1130A100E94150507FC05D03EF4909581959F4FE3
S1130A200895709561957F4F0895AA1BBB1B51E1F2
S1130A3007C0AA1FBB1FA617B70710F0A61BB70B4A
S1130A40881F991F5A95A9F780959095BC01CD01EF
S1090A500895F894FFCFA5
S1130A560D0A4D6F646F2053455249414C20616322
S1130A6674697661646F2E204C6973746F207061AB
S1130A76726120636F6D616E646F732E0D0A000DD3
S1130A860A476C6F626F206F63756C617220444510
S1130A9652454348410D0A000D0A476C6F626F20A8
S1130AA66F63756C617220495A51554945524441E8
S1130AB60D0A000D0A43657272616E646F2070E15F
S1130AC6727061646F20495A5155494552444F0D1D
S1130AD60A000D0A43657272616E646F2070E172DA
S1130AE67061646F204445524543484F0D0A000D1A
S1130AF60A5669656E646F204142414A4F0D0A00E9
S1130B060D0A436F6D616E646F206E6F2076E16C23
S1130B1669646F2E20496E74656E74652064652061
S1130B266E7565766F2E0D0A000D0A2D2D2D204D3E
S1130B36454E5520444520434F4D414E444F532086
S1130B463A29202D2D2D0D0A00313A476C6F626F1C
S1130B56206F63756C617220444552454348410DCC
S1130B660A00323A476C6F626F206F63756C61726C
S1130B7620495A515549455244410D0A00333A47D2
S1130B867569F16F20495A5155494552444F0D0A2A
S1130B9600343A477569F16F204445524543484F3E
S1130BA60D0A00353A5669656E646F204142414A22
S1130BB64F0D0A002D2D2D2D2D2D2D2D2D2D2D2DA9
S1130BC62D2D2D2D2D2D2D2D2D2D2D0D0A00496E5E
S1130BD6677265736520636F6D616E646F3A20009A
S9030000FC
