S014000070726F796563746F6F6F5F322E737265632C
S11300000C9434000C9446000C9446000C94460066
S11300100C9446000C946A020C9446000C9446001E
S11300200C9446000C9446000C9446000C94460034
S11300300C9446000C9446000C9446000C94460024
S11300400C9446000C9446000C943D020C9446001B
S11300500C9446000C9446000C9446000C94460004
S11300600C9446000C94460011241FBECFEFD8E038
S1130070DEBFCDBF21E0A0E0B1E001C01D92A630FB
S1130080B207E1F70E9406010C945F040C9400008F
S1130090F999FECF72BD61BD80BD8FB384608FBB03
S11300A08FB382608FBB0895F999FECF92BD81BD55
S11300B08FB381608FBB80B5089580E480937C000A
S11300C087E880937A000895F89417B88FEF84B97D
S11300D08AB98AB184688AB98BB184688BB9EDE630
S11300E0F0E0808180688083E8E6F0E080818460CD
S11300F080830E94840278940895ECE7F0E0908174
S1130100907F8F70892B8083EAE7F0E080818064A0
S1130110808380917A0086FDFCCF80917800909155
S113012079000895E0E8F0E08081826A8083E1E864
S1130130F0E080818A61808388EE9DEF9093870050
S11301408093860084B1866084B90895E0EBF0E082
S11301508081836A8083E1EBF0E080818760808323
S11301608AB188608AB984B1886084B9089584B5F5
S1130170836A84BD85B5856085BD8AB180648AB98A
S11301808AB180628AB90895909389008093880027
S1130190089590938B0080938A0008958093B30010
S11301A008958093B400089587BD089588BD089587
S11301B099B1892F847092FD0DC02FEF39EF90E033
S11301C0215030409040E1F700C000004A9903C03C
S11301D081E0089580E008950E94D8008823A9F062
S11301E04A9BFECF2FEF89EF90E021508040904052
S11301F0E1F700C000008091040190E0019663E003
S113020070E00E9437048093040108950E94640002
S11302100E945D000E9492000E94A6000E94B70006
S11302200E94EC0080910401882321F0813009F4BC
S1130230EDC0F6CF86E00E947D00BC0180E090E036
S11302400E943C0328E431EE4AEF5FEB0E94CA03AC
S113025020E030E443E055E40E94A1020E940D0333
S1130260CB010E94C40086E00E947D00BC0180E0B6
S113027090E00E943C0328E431EE4AEF5FE30E94E1
S1130280CA0320E030EE45E954E40E94A1020E9432
S11302900D03CB010E94C90086E00E947D00BC01D1
S11302A080E090E00E943C0327EF35E740E65CE302
S11302B00E94CA0320E030E040E151E40E94A10220
S11302C00E940D03CB010E94CE0087E00E947D00B6
S11302D0BC0180E090E00E943C0324E132E240EE65
S11302E05BE30E94CA0320E030E040E151E40E9455
S11302F0A1020E940D03CB010E94D10080E00E9464
S11303007D00BC0180E090E00E943C0324E237E9D8
S11303104FE75BE30E94CA0320E030E040E151E490
S11303200E94A1020E940D03CB010E94D40080E030
S11303300E947D00BC0180E090E00E943C0324E226
S113034037E94FE75BEB0E94CA0320E030E040E569
S113035051E40E94A1020E940D03CB010E94D60029
S113036080910301813009F05BCF809101018630D7
S113037008F056CF6091020181E0860F809302015C
S1130380809188009091890070E00E9448006091FB
S1130390020181E0860F8093020180918A0090918E
S11303A08B0070E00E9448006091020181E0860F9A
S11303B0809302018091B30070E00E944800609134
S11303C0020181E0860F809302018091B40070E005
S11303D00E9448006091020181E0860F809302012F
S11303E087B570E00E9448006091020181E0860FA9
S11303F08093020188B570E00E9448008091010159
S11304008F5F80930101109203010ACF8091030151
S11304109FEF980F943008F003CF90E00197982F46
S1130420990F890FC82FCC0FD0E0CE010E94540041
S113043090E09093890080938800CE0101960E94F9
S1130440540090E090938B0080938A00CE01029632
S11304500E9454008093B300CE0103960E9454007E
S11304608093B400CE0104960E94540087BDCE014F
S113047005960E94540088BDD3CE1F920F920FB6EA
S11304800F9211242F933F934F935F936F937F9316
S11304908F939F93AF93BF93EF93FF938091C60085
S11304A08093050181E080930001809105010E9401
S11304B09902FF91EF91BF91AF919F918F917F919D
S11304C06F915F914F913F912F910F900FBE0F90BD
S11304D01F9018951F920F920FB60F9211248F93AD
S11304E085B1806285B94F9909C0809103018F5FFE
S11304F080930301853011F4109203018F910F90C2
S11305000FBE0F901F9018958AB182608AB98AB184
S11305108E7F8AB91092C00088E98093C10086E07A
S11305208093C20087E690E09093C5008093C40056
S113053008959091C00095FFFCCF8093C600089564
S11305405058BB27AA270E94B8020C9490030E941B
S1130550820338F00E94890320F039F49F3F19F494
S113056026F40C947F030EF4E095E7FB0C947903D6
S1130570E92F0E94A10358F3BA176207730784078F
S1130580950720F079F4A6F50C94C3030EF4E095D6
S11305900B2EBA2FA02D0B01B90190010C01CA0139
S11305A0A0011124FF27591B99F0593F50F4503EE4
S11305B068F11A16F040A22F232F342F4427585FD6
S11305C0F3CF469537952795A795F0405395C9F7EE
S11305D07EF41F16BA0B620B730B840BBAF09150A6
S11305E0A1F0FF0FBB1F661F771F881FC2F70EC045
S11305F0BA0F621F731F841F48F487957795679518
S1130600B795F7959E3F08F0B0CF9395880F08F003
S11306109927EE0F9795879508950E94A90388F06E
S11306209F5798F0B92F9927B751B0F0E1F0660FB2
S1130630771F881F991F1AF0BA95C9F714C0B130F3
S113064091F00E94C303B1E008950C94C303672F93
S1130650782F8827B85F39F0B93FCCF38695779522
S11306606795B395D9F73EF490958095709561950B
S11306707F4F8F4F9F4F0895E89409C097FB3EF436
S113068090958095709561957F4F8F4F9F4F9923DB
S1130690A9F0F92F96E9BB279395F6958795779559
S11306A06795B795F111F8CFFAF4BB0F11F460FF19
S11306B01BC06F5F7F4F8F4F9F4F16C0882311F071
S11306C096E911C0772321F09EE8872F762F05C085
S11306D0662371F096E8862F70E060E02AF09A9520
S11306E0660F771F881FDAF7880F9695879597F915
S11306F0089597F99F6780E870E060E008959FEFA0
S113070080EC089500240A941616170618060906A4
S1130710089500240A941216130614060506089573
S1130720092E0394000C11F4882352F0BB0F40F4FB
S1130730BF2B11F460FF04C06F5F7F4F8F4F9F4F3B
S1130740089557FD9058440F551F59F05F3F71F0BD
S11307504795880F97FB991F61F09F3F79F0879524
S11307600895121613061406551FF2CF4695F1DFAD
S113077008C0161617061806991FF1CF869571053D
S1130780610508940895E894BB2766277727CB0171
S113079097F908950E94DD030C9490030E9482034C
S11307A038F00E94890320F0952311F00C9479030A
S11307B00C947F0311240C94C4030E94A10370F3CE
S11307C0959FC1F3950F50E0551F629FF001729FF2
S11307D0BB27F00DB11D639FAA27F00DB11DAA1F01
S11307E0649F6627B00DA11D661F829F2227B00D4E
S11307F0A11D621F739FB00DA11D621F839FA00DD9
S1130800611D221F749F3327A00D611D231F849F28
S1130810600D211D822F762F6A2F11249F5750407F
S11308209AF0F1F088234AF0EE0FFF1FBB1F661FFA
S1130830771F881F91505040A9F79E3F510580F0C3
S11308400C9479030C94C4035F3FE4F3983ED4F30F
S1130850869577956795B795F795E7959F5FC1F767
S1130860FE2B880F911D9695879597F9089597FB10
S1130870072E16F4009407D077FD09D00E944B048C
S113088007FC05D03EF4909581959F4F089570958F
S113089061957F4F0895AA1BBB1B51E107C0AA1F96
S11308A0BB1FA617B70710F0A61BB70B881F991F0D
S11308B05A95A9F780959095BC01CD010895F894B7
S10508C0FFCF64
S9030000FC
