S014000070726F796563746F6F6F5F322E737265632C
S11300000C9434000C9451000C9451000C94510045
S11300100C9451000C94C7020C9451000C945100A0
S11300200C9451000C9451000C9451000C94510008
S11300300C9451000C9451000C9451000C945100F8
S11300400C9451000C9451000C949A020C9451009D
S11300500C9451000C9451000C9451000C945100D8
S11300600C9451000C94510011241FBECFEFD8E022
S1130070DEBFCDBF12E0A0E0B1E0E4EFF9E002C0E2
S113008005900D92A83CB107D9F722E0A8ECB2E0A4
S113009001C01D92AE3CB207E1F70E9411010C941D
S11300A0F8040C940000F999FECF72BD61BD80BDC7
S11300B08FB384608FBB8FB382608FBB0895F9992F
S11300C0FECF92BD81BD8FB381608FBB80B5089593
S11300D080E480937C0087E880937A000895F89404
S11300E017B88FEF84B98AB98AB184688AB98BB199
S11300F084688BB9EDE6F0E0808180688083E8E66F
S1130100F0E08081846080830E94E1027894089505
S1130110ECE7F0E09081907F8F70892B8083EAE791
S1130120F0E080818064808380917A0086FDFCCF3A
S113013080917800909179000895E0E8F0E0808162
S1130140826A8083E1E8F0E080818A61808388EEBE
S11301509DEF909387008093860084B1866084B974
S11301600895E0EBF0E08081836A8083E1EBF0E0C6
S11301708081876080838AB188608AB984B188600D
S113018084B9089584B5836A84BD85B5856085BDC9
S11301908AB180648AB98AB180628AB908959093D9
S11301A0890080938800089590938B0080938A003F
S11301B008958093B30008958093B400089587BD93
S11301C0089588BD089599B1892F847092FD0DC05A
S11301D02FEF39EF90E0215030409040E1F700C01C
S11301E000004A9903C081E0089580E008950E94C8
S11301F0E3008823A9F04A9BFECF2FEF89EF90E01C
S1130200215080409040E1F700C000008091CC0272
S113021090E0019663E070E00E94D0048093CC02E9
S113022008950E946F000E9468000E949D000E9431
S1130230B1000E94C2000E94F7008091CC0281307C
S113024009F4F1C020F0823009F424C1F4CF86E02F
S11302500E948800BC0180E090E00E94D50328E45D
S113026031EE4AEF5FEB0E94630420E030E443E0A8
S113027055E40E943A030E94A603CB010E94CF00DA
S113028086E00E948800BC0180E090E00E94D503D3
S113029028E431EE4AEF5FE30E94630420E030EE8D
S11302A045E954E40E943A030E94A603CB010E944C
S11302B0D40086E00E948800BC0180E090E00E94A7
S11302C0D50327EF35E740E65CE30E94630420E0B2
S11302D030E040E151E40E943A030E94A603CB01BE
S11302E00E94D90087E00E948800BC0180E090E071
S11302F00E94D50324E132E240EE5BE30E946304F2
S113030020E030E040E151E40E943A030E94A60359
S1130310CB010E94DC0080E00E948800BC0180E0E8
S113032090E00E94D50324E237E94FE75BE30E94A3
S1130330630420E030E040E151E40E943A030E946B
S1130340A603CB010E94DF0080E00E948800BC016C
S113035080E090E00E94D50324E237E94FE75BEBAD
S11303600E94630420E030E040E551E40E943A0337
S11303700E94A603CB010E94E1008091CB02813050
S113038009F059CF8091C902863008F054CF6091AA
S1130390CA0281E0860F8093CA02809188009091FE
S11303A0890070E00E9453006091CA0281E0860FC8
S11303B08093CA0280918A0090918B0070E00E9421
S11303C053006091CA0281E0860F8093CA02809133
S11303D0B30070E00E9453006091CA0281E0860F6E
S11303E08093CA028091B40070E00E94530060912F
S11303F0CA0281E0860F8093CA0287B570E00E942A
S113040053006091CA0281E0860F8093CA0288B5C6
S113041070E00E9453008091C9028F5F8093C902EB
S11304201092CB0208CF8091CB029FEF980F9430AB
S113043008F001CF90E00197982F990F890FC82FEA
S1130440CC0FD0E0CE010E945F0090E09093890031
S113045080938800CE0101960E945F0090E0909303
S11304608B0080938A00CE0102960E945F008093E5
S1130470B300CE0103960E945F008093B400CE01C6
S113048004960E945F0087BDCE0105960E945F001E
S113049088BDD1CE80E091E00E94FD020E9410034D
S11304A043C08091C8028823E9F18091CD0283334F
S11304B0D9F028F4813341F0823371F02BC08433B6
S11304C0D1F08533F9F026C087E18093B3008FE241
S11304D091E00E94FD0222C089E08093B3008AE487
S11304E091E00E94FD021AC089E087BD83E691E095
S11304F00E94FD0213C089E088BD82E891E00E9459
S1130500FD020CC08DE08093B4008FE991E00E945D
S1130510FD0204C080EB91E00E94FD021092C8022B
S11305200E9410030E94F7008091CC02823009F4EB
S1130530B8CF81CE1F920F920FB60F9211242F9332
S11305403F934F935F936F937F938F939F93AF9357
S1130550BF93EF93FF938091C6008093CD0281E017
S11305608093C8028091CD020E94F602FF91EF9120
S1130570BF91AF919F918F917F916F915F914F91B7
S11305803F912F910F900FBE0F901F9018951F92BF
S11305900F920FB60F9211248F9385B1806285B9A3
S11305A04F9909C08091CB028F5F8093CB02853035
S11305B011F41092CB028F910F900FBE0F901F90E9
S11305C018958AB182608AB98AB18E7F8AB91092ED
S11305D0C00088E98093C10086E08093C20087E66A
S11305E090E09093C5008093C40008959091C0005A
S11305F095FFFCCF8093C60008950F931F93CF936C
S11306008C01C0E003C00E94F602CF5FF801EC0F3A
S1130610F11D80818111F7CFCF911F910F91089522
S113062089ED91E00E94FD0286EF91E00E94FD02B7
S113063084E192E00E94FD0281E392E00E94FD02C7
S113064085E492E00E94FD0287E592E00E94FD02AB
S11306508AE692E00E94FD028EE792E00E94FD028B
S11306608BE992E00E94FD0285EB92E00E94FD027C
S113067008955058BB27AA270E9451030C942904BB
S11306800E941B0438F00E94220420F039F49F3F9A
S113069019F426F40C9418040EF4E095E7FB0C947A
S11306A01204E92F0E943A0458F3BA176207730739
S11306B08407950720F079F4A6F50C945C040EF4F5
S11306C0E0950B2EBA2FA02D0B01B90190010C015E
S11306D0CA01A0011124FF27591B99F0593F50F476
S11306E0503E68F11A16F040A22F232F342F4427CE
S11306F0585FF3CF469537952795A795F0405395C6
S1130700C9F77EF41F16BA0B620B730B840BBAF095
S11307109150A1F0FF0FBB1F661F771F881FC2F700
S11307200EC0BA0F621F731F841F48F48795779514
S11307306795B795F7959E3F08F0B0CF9395880FCE
S113074008F09927EE0F9795879508950E94420423
S113075088F09F5798F0B92F9927B751B0F0E1F07E
S1130760660F771F881F991F1AF0BA95C9F714C02E
S1130770B13091F00E945C04B1E008950C945C04E3
S1130780672F782F8827B85F39F0B93FCCF3869567
S113079077956795B395D9F73EF4909580957095C4
S11307A061957F4F8F4F9F4F0895E89409C097FB41
S11307B03EF490958095709561957F4F8F4F9F4F34
S11307C09923A9F0F92F96E9BB279395F695879578
S11307D077956795B795F111F8CFFAF4BB0F11F43B
S11307E060FF1BC06F5F7F4F8F4F9F4F16C08823E2
S11307F011F096E911C0772321F09EE8872F762F18
S113080005C0662371F096E8862F70E060E02AF058
S11308109A95660F771F881FDAF7880F9695879544
S113082097F9089597F99F6780E870E060E008956C
S11308309FEF80EC089500240A94161617061806F4
S11308400906089500240A941216130614060506D0
S11308500895092E0394000C11F4882352F0BB0F61
S113086040F4BF2B11F460FF04C06F5F7F4F8F4FC4
S11308709F4F089557FD9058440F551F59F05F3FFF
S113088071F04795880F97FB991F61F09F3F79F0AE
S113089087950895121613061406551FF2CF469530
S11308A0F1DF08C0161617061806991FF1CF8695B2
S11308B07105610508940895E894BB276627772796
S11308C0CB0197F908950E9476040C9429040E94A0
S11308D01B0438F00E94220420F0952311F00C949C
S11308E012040C94180411240C945D040E943A041C
S11308F070F3959FC1F3950F50E0551F629FF0016F
S1130900729FBB27F00DB11D639FAA27F00DB11D87
S1130910AA1F649F6627B00DA11D661F829F222710
S1130920B00DA11D621F739FB00DA11D621F839F97
S1130930A00D611D221F749F3327A00D611D231F6D
S1130940849F600D211D822F762F6A2F11249F57BB
S113095050409AF0F1F088234AF0EE0FFF1FBB1FBE
S1130960661F771F881F91505040A9F79E3F51057D
S113097080F00C9412040C945D045F3FE4F3983E01
S1130980D4F3869577956795B795F795E7959F5F27
S1130990C1F7FE2B880F911D9695879597F90895B9
S11309A097FB072E16F4009407D077FD09D00E9418
S11309B0E40407FC05D03EF4909581959F4F08957B
S11309C0709561957F4F0895AA1BBB1B51E107C029
S11309D0AA1FBB1FA617B70710F0A61BB70B881FCB
S11309E0991F5A95A9F780959095BC01CD0108955A
S10709F0F894FFCFA5
S11309F40D0A4D6F646F2053455249414C20616385
S1130A0474697661646F2E204C6973746F2070610D
S1130A14726120636F6D616E646F732E0D0A000D35
S1130A240A476C6F626F206F63756C617220495A58
S1130A34515549455244410D0A000D0A476C6F62F1
S1130A446F206F63756C617220444552454348417D
S1130A540D0A000D0A43657272616E646F2070E1C1
S1130A64727061646F20495A5155494552444F0D7F
S1130A740A000D0A43657272616E646F2070E1723C
S1130A847061646F204445524543484F0D0A000D7C
S1130A940A5669656E646F204142414A4F0D0A004B
S1130AA40D0A436F6D616E646F206E6F2076E16C86
S1130AB469646F2E20496E74656E746520646520C4
S1130AC46E7565766F2E0D0A000D0A2D2D2D204DA1
S1130AD4454E5520444520434F4D414E444F5320E9
S1130AE42D2D2D0D0A00313A4D6F76657220676CF9
S1130AF46F626F206F63756C617220415252494278
S1130B04410D0A00323A4D6F76657220676C6F624C
S1130B146F206F63756C6172204142414A4F0D0A24
S1130B2400333A4D6972617220495A51554945520C
S1130B3444410D0A00343A4D6972617220444552AD
S1130B44454348410D0A00353A4142524952207006
S1130B5461727061646F730D0A00363A43455252F0
S1130B644152207061727061646F730D0A00523ACD
S1130B7452455345542028506F736963696F6E203E
S1130B84696E696369616C290D0A002D2D2D2D2D63
S1130B942D2D2D2D2D2D2D2D2D2D2D2D2D2D2D2D7D
S1130BA42D2D0D0A00496E677265736520636F6DA0
S10B0BB4616E646F3A20000039
S9030000FC
